:03000000020003F8
:0C000300787FE4F6D8FD75811F02004AEA
:10017200080A010204081020408008128040201062
:0A01820008040201041A8040201056
:0A014C00251FF8E6F5907FF47E0110
:10015600EF1FAA0670011E4A60117C007D80ED1D0E
:0B016600AA0470011C4A60E80080F34E
:01017100226B
:1001100020A0107F027E0012015620A00675080064
:1001200075090120A2107F027E0012015620A2064E
:1001300075080075090220A4107F027E0012015686
:0B01400020A406750800750903AF0934
:01014B002291
:10008F00E4F51EF51FF583F582F5901201107583C7
:10009F00008F82E5826401701CF51EF51F740A1231
:1000AF00014C051FE51F7002051EC39408E51E6471
:1000BF0080948040E8E58264024583701CF51EF54C
:1000CF001F741212014C051FE51F7002051EC39409
:1000DF0008E51E6480948040E8E5826403458370E0
:1000EF00AAF51EF51FC3E51F9404E51E64809480D6
:1000FF005099741A12014C051FE51F70E8051E80F8
:01010F00E40B
:10000F0002008FE493A3F8E493A34003F68001F278
:10001F0008DFF48029E493A3F85407240CC8C333F2
:10002F00C4540F4420C8834004F456800146F6DFC1
:10003F00E4800B0102040810204080900172E47EDE
:10004F00019360BCA3FF543F30E509541FFEE493B6
:10005F00A360010ECF54C025E060A840B8E493A37D
:10006F00FAE493A3F8E493A3C8C582C8CAC583CAA8
:10007F00F0A3C8C582C8CAC583CADFE9DEE780BE60
:01018C000072
:00000001FF
